:02000000FA2FD5
:100200007F087F398A000408840A0319FF0A8200E4
:10021000003400340034003400340034003400343E
:10022000003400340034003400340034003400342E
:10023000003400340034003400340034003400341E
:10024000003400340034003400340034003400340E
:100E90003E30831603138600831203138601F1018B
:100EA000F2017108F0007007403E84007108800074
:100EB000840A720880000130F1070318F20A00303A
:100EC000F2077208803AFF0080307F02031D6A2F0C
:100ED00018307102031C6D2F6E2F512F3E30F00021
:100EE00070088312031386066E2F002864008001A9
:0C0EF000840A0406031900340406772F5E
:0C0FF40040308400703076278301482FC5
:02400E00F93F78
:00000001FF
